{
  "contractName": "SupplyChainPayment",
  "abi": [
    {
      "inputs": [
        {
          "internalType": "address",
          "name": "_supplyChainAddress",
          "type": "address"
        }
      ],
      "stateMutability": "nonpayable",
      "type": "constructor"
    },
    {
      "anonymous": false,
      "inputs": [
        {
          "indexed": true,
          "internalType": "bytes32",
          "name": "agreementId",
          "type": "bytes32"
        },
        {
          "indexed": false,
          "internalType": "bytes32",
          "name": "shipmentId",
          "type": "bytes32"
        }
      ],
      "name": "DeliveryConfirmed",
      "type": "event"
    },
    {
      "anonymous": false,
      "inputs": [
        {
          "indexed": true,
          "internalType": "bytes32",
          "name": "agreementId",
          "type": "bytes32"
        },
        {
          "indexed": false,
          "internalType": "bytes32",
          "name": "shipmentId",
          "type": "bytes32"
        },
        {
          "indexed": false,
          "internalType": "address",
          "name": "buyer",
          "type": "address"
        },
        {
          "indexed": false,
          "internalType": "uint256",
          "name": "amount",
          "type": "uint256"
        }
      ],
      "name": "PaymentFunded",
      "type": "event"
    },
    {
      "anonymous": false,
      "inputs": [
        {
          "indexed": true,
          "internalType": "bytes32",
          "name": "agreementId",
          "type": "bytes32"
        },
        {
          "indexed": false,
          "internalType": "address",
          "name": "supplier",
          "type": "address"
        },
        {
          "indexed": false,
          "internalType": "uint256",
          "name": "amount",
          "type": "uint256"
        }
      ],
      "name": "PaymentReleased",
      "type": "event"
    },
    {
      "inputs": [
        {
          "internalType": "uint256",
          "name": "",
          "type": "uint256"
        }
      ],
      "name": "agreementIds",
      "outputs": [
        {
          "internalType": "bytes32",
          "name": "",
          "type": "bytes32"
        }
      ],
      "stateMutability": "view",
      "type": "function",
      "constant": true
    },
    {
      "inputs": [
        {
          "internalType": "bytes32",
          "name": "",
          "type": "bytes32"
        }
      ],
      "name": "agreements",
      "outputs": [
        {
          "internalType": "bytes32",
          "name": "agreementId",
          "type": "bytes32"
        },
        {
          "internalType": "bytes32",
          "name": "shipmentId",
          "type": "bytes32"
        },
        {
          "internalType": "address",
          "name": "buyer",
          "type": "address"
        },
        {
          "internalType": "address",
          "name": "supplier",
          "type": "address"
        },
        {
          "internalType": "uint256",
          "name": "amountWei",
          "type": "uint256"
        },
        {
          "internalType": "uint256",
          "name": "createdAt",
          "type": "uint256"
        },
        {
          "internalType": "enum SupplyChainPayment.PaymentStatus",
          "name": "status",
          "type": "uint8"
        }
      ],
      "stateMutability": "view",
      "type": "function",
      "constant": true
    },
    {
      "inputs": [
        {
          "internalType": "address",
          "name": "",
          "type": "address"
        }
      ],
      "name": "authorized",
      "outputs": [
        {
          "internalType": "bool",
          "name": "",
          "type": "bool"
        }
      ],
      "stateMutability": "view",
      "type": "function",
      "constant": true
    },
    {
      "inputs": [],
      "name": "owner",
      "outputs": [
        {
          "internalType": "address",
          "name": "",
          "type": "address"
        }
      ],
      "stateMutability": "view",
      "type": "function",
      "constant": true
    },
    {
      "inputs": [],
      "name": "supplyChain",
      "outputs": [
        {
          "internalType": "contract ISupplyChain",
          "name": "",
          "type": "address"
        }
      ],
      "stateMutability": "view",
      "type": "function",
      "constant": true
    },
    {
      "inputs": [
        {
          "internalType": "address",
          "name": "_supplyChainAddress",
          "type": "address"
        }
      ],
      "name": "setSupplyChain",
      "outputs": [],
      "stateMutability": "nonpayable",
      "type": "function"
    },
    {
      "inputs": [
        {
          "internalType": "address",
          "name": "account",
          "type": "address"
        }
      ],
      "name": "addAuthorized",
      "outputs": [],
      "stateMutability": "nonpayable",
      "type": "function"
    },
    {
      "inputs": [
        {
          "internalType": "bytes32",
          "name": "shipmentId",
          "type": "bytes32"
        },
        {
          "internalType": "address",
          "name": "supplier",
          "type": "address"
        }
      ],
      "name": "createAndFundAgreement",
      "outputs": [
        {
          "internalType": "bytes32",
          "name": "",
          "type": "bytes32"
        }
      ],
      "stateMutability": "payable",
      "type": "function",
      "payable": true
    },
    {
      "inputs": [
        {
          "internalType": "bytes32",
          "name": "agreementId",
          "type": "bytes32"
        }
      ],
      "name": "confirmDeliveryAndRelease",
      "outputs": [],
      "stateMutability": "nonpayable",
      "type": "function"
    },
    {
      "inputs": [
        {
          "internalType": "bytes32",
          "name": "agreementId",
          "type": "bytes32"
        }
      ],
      "name": "getAgreement",
      "outputs": [
        {
          "internalType": "bytes32",
          "name": "id",
          "type": "bytes32"
        },
        {
          "internalType": "bytes32",
          "name": "shipmentId",
          "type": "bytes32"
        },
        {
          "internalType": "address",
          "name": "buyer",
          "type": "address"
        },
        {
          "internalType": "address",
          "name": "supplier",
          "type": "address"
        },
        {
          "internalType": "uint256",
          "name": "amountWei",
          "type": "uint256"
        },
        {
          "internalType": "uint256",
          "name": "createdAt",
          "type": "uint256"
        },
        {
          "internalType": "enum SupplyChainPayment.PaymentStatus",
          "name": "status",
          "type": "uint8"
        }
      ],
      "stateMutability": "view",
      "type": "function",
      "constant": true
    },
    {
      "inputs": [
        {
          "internalType": "bytes32",
          "name": "agreementId",
          "type": "bytes32"
        }
      ],
      "name": "getAgreementStatus",
      "outputs": [
        {
          "internalType": "enum SupplyChainPayment.PaymentStatus",
          "name": "",
          "type": "uint8"
        }
      ],
      "stateMutability": "view",
      "type": "function",
      "constant": true
    }
  ],
  "bytecode": "0x608060405234801561001057600080fd5b50604051610cf5380380610cf583398101604081905261002f9161007d565b60028054336001600160a01b03199182168117909255600091825260046020526040909120805460ff19166001179055600380549091166001600160a01b03929092169190911790556100ad565b60006020828403121561008f57600080fd5b81516001600160a01b03811681146100a657600080fd5b9392505050565b610c39806100bc6000396000f3fe60806040526004361061009c5760003560e01c8063ad6d313711610064578063ad6d3137146101c8578063b9181611146101e8578063cbc3a79614610228578063cf1c316a14610268578063ddc6cae314610288578063f42eb7651461029b57600080fd5b80632afa9493146100a157806388d84b66146100c35780638da5cb5b146101005780639c315c71146101205780639e1f68c71461014e575b600080fd5b3480156100ad57600080fd5b506100c16100bc366004610acb565b6102bb565b005b3480156100cf57600080fd5b506003546100e3906001600160a01b031681565b6040516001600160a01b0390911681526020015b60405180910390f35b34801561010c57600080fd5b506002546100e3906001600160a01b031681565b34801561012c57600080fd5b5061014061013b366004610acb565b6105d2565b6040519081526020016100f7565b34801561015a57600080fd5b506101b5610169366004610acb565b6000602081905290815260409020805460018201546002830154600384015460048501546005860154600690960154949593946001600160a01b03938416949390921692909160ff1687565b6040516100f79796959493929190610b1c565b3480156101d457600080fd5b506100c16101e3366004610b84565b6105f3565b3480156101f457600080fd5b50610218610203366004610b84565b60046020526000908152604090205460ff1681565b60405190151581526020016100f7565b34801561023457600080fd5b5061025b610243366004610acb565b60009081526020819052604090206006015460ff1690565b6040516100f79190610ba6565b34801561027457600080fd5b506100c1610283366004610b84565b61065b565b610140610296366004610bb4565b6106c5565b3480156102a757600080fd5b506101b56102b6366004610acb565b6109a4565b3360009081526004602052604090205460ff16806102e357506002546001600160a01b031633145b6103255760405162461bcd60e51b815260206004820152600e60248201526d139bdd08185d5d1a1bdc9a5e995960921b60448201526064015b60405180910390fd5b6000818152602081905260408120600581015490910361037d5760405162461bcd60e51b81526020600482015260136024820152721059dc99595b595b9d081b9bdd08199bdd5b99606a1b604482015260640161031c565b6001600682015460ff16600481111561039857610398610ae4565b146103d65760405162461bcd60e51b815260206004820152600e60248201526d496e76616c69642073746174757360901b604482015260640161031c565b600354600182015460405163996f508f60e01b815260048101919091526000916001600160a01b03169063996f508f90602401602060405180830381865afa158015610426573d6000803e3d6000fd5b505050506040513d601f19601f8201168201806040525081019061044a9190610be0565b90508060ff166003146104985760405162461bcd60e51b815260206004820152601660248201527514da1a5c1b595b9d081b9bdd0819195b1a5d995c995960521b604482015260640161031c565b60068201805460ff19166003179055600182015460405190815283907fc79947ca5d7385fd16032f10a3123f0cd8a87c732650670b19702e63ad1058df9060200160405180910390a260038201546004830154604080516001600160a01b039093168352602083019190915284917f1e170c3b430cc6fdcdaa453c42619ac587e13793aa81a489fab9ebd7019c2efb910160405180910390a2600382015460048301546040516000926001600160a01b031691908381818185875af1925050503d8060008114610584576040519150601f19603f3d011682016040523d82523d6000602084013e610589565b606091505b50509050806105cc5760405162461bcd60e51b815260206004820152600f60248201526e151c985b9cd9995c8819985a5b1959608a1b604482015260640161031c565b50505050565b600181815481106105e257600080fd5b600091825260209091200154905081565b6002546001600160a01b031633146106395760405162461bcd60e51b81526020600482015260096024820152682737ba1037bbb732b960b91b604482015260640161031c565b600380546001600160a01b0319166001600160a01b0392909216919091179055565b6002546001600160a01b031633146106a15760405162461bcd60e51b81526020600482015260096024820152682737ba1037bbb732b960b91b604482015260640161031c565b6001600160a01b03166000908152600460205260409020805460ff19166001179055565b3360009081526004602052604081205460ff16806106ed57506002546001600160a01b031633145b61072a5760405162461bcd60e51b815260206004820152600e60248201526d139bdd08185d5d1a1bdc9a5e995960921b604482015260640161031c565b6000341161076f5760405162461bcd60e51b81526020600482015260126024820152710416d6f756e74206d757374206265203e20360741b604482015260640161031c565b6001600160a01b0382166107b85760405162461bcd60e51b815260206004820152601060248201526f24b73b30b634b21039bab8383634b2b960811b604482015260640161031c565b60408051602081018590526bffffffffffffffffffffffff193360601b169181019190915242605482015244607482015260009060940160408051601f198184030181529181528151602092830120600081815292839052912060050154909150156108595760405162461bcd60e51b815260206004820152601060248201526f41677265656d656e742065786973747360801b604482015260640161031c565b6040805160e0810182528281526020808201878152338385019081526001600160a01b038881166060860190815234608087019081524260a08801908152600160c0890181815260008c815298899052999097208851815595518688015593516002860180549185166001600160a01b031992831617905591516003860180549190941692169190911790915551600480840191909155905160058301559351600682018054949592949193909260ff1990921691849081111561091f5761091f610ae4565b0217905550506001805480820182556000919091527fb10e2d527612073b26eecdfd717e6a320cf44b4afac2b0732d9fcbe2b7fa0cf60182905550604080518581523360208201523481830152905182917fd9508d72baa4823ddc3f1547f45a92fdfcbdc06c52fbfc9f22a4509000975d03919081900360600190a290505b92915050565b600081815260208181526040808320815160e0810183528154815260018201549381019390935260028101546001600160a01b0390811692840192909252600381015490911660608301526004808201546080840152600582015460a0840152600682015484938493849384938493849384939192909160c084019160ff1690811115610a3357610a33610ae4565b6004811115610a4457610a44610ae4565b8152505090508060a00151600003610a945760405162461bcd60e51b81526020600482015260136024820152721059dc99595b595b9d081b9bdd08199bdd5b99606a1b604482015260640161031c565b8051602082015160408301516060840151608085015160a086015160c090960151949e939d50919b50995097509195509350915050565b600060208284031215610add57600080fd5b5035919050565b634e487b7160e01b600052602160045260246000fd5b60058110610b1857634e487b7160e01b600052602160045260246000fd5b9052565b878152602081018790526001600160a01b038681166040830152851660608201526080810184905260a0810183905260e08101610b5c60c0830184610afa565b98975050505050505050565b80356001600160a01b0381168114610b7f57600080fd5b919050565b600060208284031215610b9657600080fd5b610b9f82610b68565b9392505050565b6020810161099e8284610afa565b60008060408385031215610bc757600080fd5b82359150610bd760208401610b68565b90509250929050565b600060208284031215610bf257600080fd5b815160ff81168114610b9f57600080fdfea26469706673582212205f5db061e6a4cfd7a8e5905d36cfd7eb245fe0f8d77656e0e797315791b12ef464736f6c63430008130033",
  "immutableReferences": {},
  "source": "// SPDX-License-Identifier: MIT\r\npragma solidity ^0.8.19;\r\n\r\n/**\r\n * @title SupplyChainPayment\r\n * @dev Escrow-style payment: buyer deposits funds; release to supplier only after delivery confirmation.\r\n * Integrated with SupplyChain contract for delivery verification.\r\n */\r\ninterface ISupplyChain {\r\n    function getShipmentStatus(bytes32 shipmentId) external view returns (uint8);\r\n}\r\n\r\ncontract SupplyChainPayment {\r\n    enum PaymentStatus {\r\n        Pending,\r\n        Funded,\r\n        Delivered,\r\n        Released,\r\n        Refunded\r\n    }\r\n\r\n    struct PaymentAgreement {\r\n        bytes32 agreementId;\r\n        bytes32 shipmentId;\r\n        address buyer;\r\n        address supplier;\r\n        uint256 amountWei;\r\n        uint256 createdAt;\r\n        PaymentStatus status;\r\n    }\r\n\r\n    mapping(bytes32 => PaymentAgreement) public agreements;\r\n    bytes32[] public agreementIds;\r\n\r\n    address public owner;\r\n    ISupplyChain public supplyChain;\r\n    mapping(address => bool) public authorized;\r\n\r\n    event PaymentFunded(bytes32 indexed agreementId, bytes32 shipmentId, address buyer, uint256 amount);\r\n    event PaymentReleased(bytes32 indexed agreementId, address supplier, uint256 amount);\r\n    event DeliveryConfirmed(bytes32 indexed agreementId, bytes32 shipmentId);\r\n\r\n    modifier onlyOwner() {\r\n        require(msg.sender == owner, \"Not owner\");\r\n        _;\r\n    }\r\n\r\n    modifier onlyAuthorized() {\r\n        require(authorized[msg.sender] || msg.sender == owner, \"Not authorized\");\r\n        _;\r\n    }\r\n\r\n    constructor(address _supplyChainAddress) {\r\n        owner = msg.sender;\r\n        authorized[msg.sender] = true;\r\n        supplyChain = ISupplyChain(_supplyChainAddress);\r\n    }\r\n\r\n    function setSupplyChain(address _supplyChainAddress) external onlyOwner {\r\n        supplyChain = ISupplyChain(_supplyChainAddress);\r\n    }\r\n\r\n    function addAuthorized(address account) external onlyOwner {\r\n        authorized[account] = true;\r\n    }\r\n\r\n    /**\r\n     * @dev Create agreement and fund escrow. Buyer sends ETH with this call.\r\n     */\r\n    function createAndFundAgreement(\r\n        bytes32 shipmentId,\r\n        address supplier\r\n    ) external payable onlyAuthorized returns (bytes32) {\r\n        require(msg.value > 0, \"Amount must be > 0\");\r\n        require(supplier != address(0), \"Invalid supplier\");\r\n\r\n        bytes32 agreementId = keccak256(\r\n            abi.encodePacked(shipmentId, msg.sender, block.timestamp, block.prevrandao)\r\n        );\r\n        require(agreements[agreementId].createdAt == 0, \"Agreement exists\");\r\n\r\n        agreements[agreementId] = PaymentAgreement({\r\n            agreementId: agreementId,\r\n            shipmentId: shipmentId,\r\n            buyer: msg.sender,\r\n            supplier: supplier,\r\n            amountWei: msg.value,\r\n            createdAt: block.timestamp,\r\n            status: PaymentStatus.Funded\r\n        });\r\n        agreementIds.push(agreementId);\r\n\r\n        emit PaymentFunded(agreementId, shipmentId, msg.sender, msg.value);\r\n        return agreementId;\r\n    }\r\n\r\n    /**\r\n     * @dev Confirm delivery and release payment to supplier.\r\n     * Only when shipment status is Delivered (3) in SupplyChain contract.\r\n     */\r\n    function confirmDeliveryAndRelease(bytes32 agreementId) external onlyAuthorized {\r\n        PaymentAgreement storage ag = agreements[agreementId];\r\n        require(ag.createdAt != 0, \"Agreement not found\");\r\n        require(ag.status == PaymentStatus.Funded, \"Invalid status\");\r\n\r\n        uint8 status = supplyChain.getShipmentStatus(ag.shipmentId);\r\n        require(status == 3, \"Shipment not delivered\"); // 3 = Delivered enum value\r\n\r\n        ag.status = PaymentStatus.Released;\r\n        emit DeliveryConfirmed(agreementId, ag.shipmentId);\r\n        emit PaymentReleased(agreementId, ag.supplier, ag.amountWei);\r\n\r\n        (bool sent, ) = ag.supplier.call{value: ag.amountWei}(\"\");\r\n        require(sent, \"Transfer failed\");\r\n    }\r\n\r\n    function getAgreement(bytes32 agreementId) external view returns (\r\n        bytes32 id,\r\n        bytes32 shipmentId,\r\n        address buyer,\r\n        address supplier,\r\n        uint256 amountWei,\r\n        uint256 createdAt,\r\n        PaymentStatus status\r\n    ) {\r\n        PaymentAgreement memory ag = agreements[agreementId];\r\n        require(ag.createdAt != 0, \"Agreement not found\");\r\n        return (\r\n            ag.agreementId,\r\n            ag.shipmentId,\r\n            ag.buyer,\r\n            ag.supplier,\r\n            ag.amountWei,\r\n            ag.createdAt,\r\n            ag.status\r\n        );\r\n    }\r\n\r\n    function getAgreementStatus(bytes32 agreementId) external view returns (PaymentStatus) {\r\n        return agreements[agreementId].status;\r\n    }\r\n}\r\n",
  "sourcePath": "E:\\Major Project\\blockchain\\contracts\\SupplyChainPayment.sol",
  "compiler": {
    "name": "solc",
    "version": "0.8.19+commit.7dd6d404.Emscripten.clang"
  },
  "schemaVersion": "3.4.16",
  "updatedAt": "2026-03-12T16:57:47.109Z",
  "networkType": "ethereum",
  "devdoc": {
    "kind": "dev",
    "methods": {
      "confirmDeliveryAndRelease(bytes32)": {
        "details": "Confirm delivery and release payment to supplier. Only when shipment status is Delivered (3) in SupplyChain contract."
      },
      "createAndFundAgreement(bytes32,address)": {
        "details": "Create agreement and fund escrow. Buyer sends ETH with this call."
      }
    },
    "version": 1
  },
  "userdoc": {
    "kind": "user",
    "methods": {},
    "version": 1
  }
}