{
  "contractName": "SupplyChain",
  "abi": [
    {
      "inputs": [],
      "stateMutability": "nonpayable",
      "type": "constructor"
    },
    {
      "anonymous": false,
      "inputs": [
        {
          "indexed": true,
          "internalType": "bytes32",
          "name": "shipmentId",
          "type": "bytes32"
        },
        {
          "indexed": false,
          "internalType": "string",
          "name": "productId",
          "type": "string"
        },
        {
          "indexed": false,
          "internalType": "uint256",
          "name": "quantity",
          "type": "uint256"
        },
        {
          "indexed": false,
          "internalType": "string",
          "name": "destination",
          "type": "string"
        },
        {
          "indexed": false,
          "internalType": "address",
          "name": "createdBy",
          "type": "address"
        },
        {
          "indexed": false,
          "internalType": "string",
          "name": "transactionRef",
          "type": "string"
        }
      ],
      "name": "ShipmentCreated",
      "type": "event"
    },
    {
      "anonymous": false,
      "inputs": [
        {
          "indexed": true,
          "internalType": "bytes32",
          "name": "shipmentId",
          "type": "bytes32"
        },
        {
          "indexed": false,
          "internalType": "enum SupplyChain.ShipmentStatus",
          "name": "previousStatus",
          "type": "uint8"
        },
        {
          "indexed": false,
          "internalType": "enum SupplyChain.ShipmentStatus",
          "name": "newStatus",
          "type": "uint8"
        },
        {
          "indexed": false,
          "internalType": "address",
          "name": "updatedBy",
          "type": "address"
        }
      ],
      "name": "ShipmentStatusUpdated",
      "type": "event"
    },
    {
      "inputs": [
        {
          "internalType": "address",
          "name": "",
          "type": "address"
        }
      ],
      "name": "authorizedRoles",
      "outputs": [
        {
          "internalType": "bool",
          "name": "",
          "type": "bool"
        }
      ],
      "stateMutability": "view",
      "type": "function",
      "constant": true
    },
    {
      "inputs": [],
      "name": "owner",
      "outputs": [
        {
          "internalType": "address",
          "name": "",
          "type": "address"
        }
      ],
      "stateMutability": "view",
      "type": "function",
      "constant": true
    },
    {
      "inputs": [
        {
          "internalType": "uint256",
          "name": "",
          "type": "uint256"
        }
      ],
      "name": "shipmentIds",
      "outputs": [
        {
          "internalType": "bytes32",
          "name": "",
          "type": "bytes32"
        }
      ],
      "stateMutability": "view",
      "type": "function",
      "constant": true
    },
    {
      "inputs": [
        {
          "internalType": "bytes32",
          "name": "",
          "type": "bytes32"
        }
      ],
      "name": "shipmentIndex",
      "outputs": [
        {
          "internalType": "uint256",
          "name": "",
          "type": "uint256"
        }
      ],
      "stateMutability": "view",
      "type": "function",
      "constant": true
    },
    {
      "inputs": [
        {
          "internalType": "bytes32",
          "name": "",
          "type": "bytes32"
        }
      ],
      "name": "shipments",
      "outputs": [
        {
          "internalType": "bytes32",
          "name": "shipmentId",
          "type": "bytes32"
        },
        {
          "internalType": "string",
          "name": "productId",
          "type": "string"
        },
        {
          "internalType": "uint256",
          "name": "quantity",
          "type": "uint256"
        },
        {
          "internalType": "string",
          "name": "destination",
          "type": "string"
        },
        {
          "internalType": "uint256",
          "name": "createdAt",
          "type": "uint256"
        },
        {
          "internalType": "enum SupplyChain.ShipmentStatus",
          "name": "status",
          "type": "uint8"
        },
        {
          "internalType": "address",
          "name": "createdBy",
          "type": "address"
        },
        {
          "internalType": "string",
          "name": "transactionRef",
          "type": "string"
        }
      ],
      "stateMutability": "view",
      "type": "function",
      "constant": true
    },
    {
      "inputs": [
        {
          "internalType": "address",
          "name": "account",
          "type": "address"
        }
      ],
      "name": "addAuthorized",
      "outputs": [],
      "stateMutability": "nonpayable",
      "type": "function"
    },
    {
      "inputs": [
        {
          "internalType": "address",
          "name": "account",
          "type": "address"
        }
      ],
      "name": "removeAuthorized",
      "outputs": [],
      "stateMutability": "nonpayable",
      "type": "function"
    },
    {
      "inputs": [
        {
          "internalType": "string",
          "name": "productId",
          "type": "string"
        },
        {
          "internalType": "uint256",
          "name": "quantity",
          "type": "uint256"
        },
        {
          "internalType": "string",
          "name": "destination",
          "type": "string"
        },
        {
          "internalType": "string",
          "name": "transactionRef",
          "type": "string"
        }
      ],
      "name": "createShipment",
      "outputs": [
        {
          "internalType": "bytes32",
          "name": "",
          "type": "bytes32"
        }
      ],
      "stateMutability": "nonpayable",
      "type": "function"
    },
    {
      "inputs": [
        {
          "internalType": "bytes32",
          "name": "shipmentId",
          "type": "bytes32"
        },
        {
          "internalType": "enum SupplyChain.ShipmentStatus",
          "name": "newStatus",
          "type": "uint8"
        }
      ],
      "name": "updateShipmentStatus",
      "outputs": [],
      "stateMutability": "nonpayable",
      "type": "function"
    },
    {
      "inputs": [
        {
          "internalType": "bytes32",
          "name": "shipmentId",
          "type": "bytes32"
        }
      ],
      "name": "getShipment",
      "outputs": [
        {
          "internalType": "bytes32",
          "name": "id",
          "type": "bytes32"
        },
        {
          "internalType": "string",
          "name": "productId",
          "type": "string"
        },
        {
          "internalType": "uint256",
          "name": "quantity",
          "type": "uint256"
        },
        {
          "internalType": "string",
          "name": "destination",
          "type": "string"
        },
        {
          "internalType": "uint256",
          "name": "createdAt",
          "type": "uint256"
        },
        {
          "internalType": "enum SupplyChain.ShipmentStatus",
          "name": "status",
          "type": "uint8"
        },
        {
          "internalType": "address",
          "name": "createdBy",
          "type": "address"
        },
        {
          "internalType": "string",
          "name": "transactionRef",
          "type": "string"
        }
      ],
      "stateMutability": "view",
      "type": "function",
      "constant": true
    },
    {
      "inputs": [
        {
          "internalType": "bytes32",
          "name": "shipmentId",
          "type": "bytes32"
        }
      ],
      "name": "getShipmentStatus",
      "outputs": [
        {
          "internalType": "enum SupplyChain.ShipmentStatus",
          "name": "",
          "type": "uint8"
        }
      ],
      "stateMutability": "view",
      "type": "function",
      "constant": true
    },
    {
      "inputs": [],
      "name": "getTotalShipments",
      "outputs": [
        {
          "internalType": "uint256",
          "name": "",
          "type": "uint256"
        }
      ],
      "stateMutability": "view",
      "type": "function",
      "constant": true
    }
  ],
  "bytecode": "0x608060405234801561001057600080fd5b50600380546001600160a01b031916339081179091556000908152600460205260409020805460ff191660011790556111f38061004e6000396000f3fe608060405234801561001057600080fd5b50600436106100b45760003560e01c80638da5cb5b116100715780638da5cb5b14610156578063996f508f14610181578063a1eebc8c146101b4578063bc593164146101e7578063cf1c316a146101fa578063d87b40411461020d57600080fd5b806313e3a5e4146100b9578063211b013f146100ec5780633eb9b9f8146100ff578063485d7d941461011257806358cb7c4114610127578063885301b21461014e575b600080fd5b6100d96100c7366004610ce9565b60026020526000908152604090205481565b6040519081526020015b60405180910390f35b6100d96100fa366004610d4b565b610220565b6100d961010d366004610ce9565b610556565b610125610120366004610def565b610577565b005b61013a610135366004610ce9565b6105e7565b6040516100e3989796959493929190610e9d565b6001546100d9565b600354610169906001600160a01b031681565b6040516001600160a01b0390911681526020016100e3565b6101a761018f366004610ce9565b60009081526020819052604090206005015460ff1690565b6040516100e39190610f16565b6101d76101c2366004610def565b60046020526000908152604090205460ff1681565b60405190151581526020016100e3565b6101256101f5366004610f2a565b6108cc565b610125610208366004610def565b610a8c565b61013a61021b366004610ce9565b610aff565b3360009081526004602052604081205460ff168061024857506003546001600160a01b031633145b61028a5760405162461bcd60e51b815260206004820152600e60248201526d139bdd08185d5d1a1bdc9a5e995960921b60448201526064015b60405180910390fd5b600088884233446040516020016102a5959493929190610f5e565b60408051601f198184030181529181528151602092830120600081815292839052912060040154909150156103145760405162461bcd60e51b815260206004820152601560248201527429b434b836b2b73a1024a21031b7b63634b9b4b7b760591b6044820152606401610281565b6040518061010001604052808281526020018a8a8080601f01602080910402602001604051908101604052809392919081815260200183838082843760009201919091525050509082525060208082018a905260408051601f8a01839004830281018301825289815292019190899089908190840183828082843760009201829052509385525050426020840152506040909101908152602001336001600160a01b0316815260200185858080601f0160208091040260200160405190810160405280939291908181526020018383808284376000920182905250939094525050838152602081815260409091208351815590830151909150600182019061041c908261102e565b50604082015160028201556060820151600382019061043b908261102e565b506080820151600482015560a082015160058201805460ff1916600183600381111561046957610469610e65565b021790555060c08201516005820180546001600160a01b0390921661010002610100600160a81b031990921691909117905560e082015160068201906104af908261102e565b505060018054808201825560008290527fb10e2d527612073b26eecdfd717e6a320cf44b4afac2b0732d9fcbe2b7fa0cf60183905580546104f092506110ee565b60008281526002602052604090819020919091555181907fa361793ee4b9601ecae652a0ac7518fc28779cad3305249f77d1f1b1e9ba230790610542908c908c908c908c908c9033908d908d90611138565b60405180910390a298975050505050505050565b6001818154811061056657600080fd5b600091825260209091200154905081565b6003546001600160a01b031633146105c65760405162461bcd60e51b81526020600482015260126024820152712737ba1031b7b73a3930b1ba1037bbb732b960711b6044820152606401610281565b6001600160a01b03166000908152600460205260409020805460ff19169055565b60006060600060606000806000606060008060008b8152602001908152602001600020604051806101000160405290816000820154815260200160018201805461063090610fa5565b80601f016020809104026020016040519081016040528092919081815260200182805461065c90610fa5565b80156106a95780601f1061067e576101008083540402835291602001916106a9565b820191906000526020600020905b81548152906001019060200180831161068c57829003601f168201915b50505050508152602001600282015481526020016003820180546106cc90610fa5565b80601f01602080910402602001604051908101604052809291908181526020018280546106f890610fa5565b80156107455780601f1061071a57610100808354040283529160200191610745565b820191906000526020600020905b81548152906001019060200180831161072857829003601f168201915b505050918352505060048201546020820152600582015460409091019060ff16600381111561077657610776610e65565b600381111561078757610787610e65565b8152600582015461010090046001600160a01b031660208201526006820180546040909201916107b690610fa5565b80601f01602080910402602001604051908101604052809291908181526020018280546107e290610fa5565b801561082f5780601f106108045761010080835404028352916020019161082f565b820191906000526020600020905b81548152906001019060200180831161081257829003601f168201915b505050505081525050905080608001516000036108885760405162461bcd60e51b815260206004820152601760248201527614da1a5c1b595b9d08191bd95cc81b9bdd08195e1a5cdd604a1b6044820152606401610281565b806000015181602001518260400151836060015184608001518560a001518660c001518760e001519850985098509850985098509850985050919395975091939597565b3360009081526004602052604090205460ff16806108f457506003546001600160a01b031633145b6109315760405162461bcd60e51b815260206004820152600e60248201526d139bdd08185d5d1a1bdc9a5e995960921b6044820152606401610281565b6000828152602081905260408120600481015490910361098d5760405162461bcd60e51b815260206004820152601760248201527614da1a5c1b595b9d08191bd95cc81b9bdd08195e1a5cdd604a1b6044820152606401610281565b600581015460ff168060038111156109a7576109a7610e65565b8360038111156109b9576109b9610e65565b1180156109d8575060038360038111156109d5576109d5610e65565b11155b610a245760405162461bcd60e51b815260206004820152601960248201527f496e76616c696420737461747573207472616e736974696f6e000000000000006044820152606401610281565b60058201805484919060ff19166001836003811115610a4557610a45610e65565b0217905550837fd358cc73395b4d8a266d6171f4404de27152566fe79578ef937931984d16d534828533604051610a7e93929190611189565b60405180910390a250505050565b6003546001600160a01b03163314610adb5760405162461bcd60e51b81526020600482015260126024820152712737ba1031b7b73a3930b1ba1037bbb732b960711b6044820152606401610281565b6001600160a01b03166000908152600460205260409020805460ff19166001179055565b60006020819052908152604090208054600182018054919291610b2190610fa5565b80601f0160208091040260200160405190810160405280929190818152602001828054610b4d90610fa5565b8015610b9a5780601f10610b6f57610100808354040283529160200191610b9a565b820191906000526020600020905b815481529060010190602001808311610b7d57829003601f168201915b505050505090806002015490806003018054610bb590610fa5565b80601f0160208091040260200160405190810160405280929190818152602001828054610be190610fa5565b8015610c2e5780601f10610c0357610100808354040283529160200191610c2e565b820191906000526020600020905b815481529060010190602001808311610c1157829003601f168201915b50505050600483015460058401546006850180549495929460ff831694506101009092046001600160a01b03169291610c6690610fa5565b80601f0160208091040260200160405190810160405280929190818152602001828054610c9290610fa5565b8015610cdf5780601f10610cb457610100808354040283529160200191610cdf565b820191906000526020600020905b815481529060010190602001808311610cc257829003601f168201915b5050505050905088565b600060208284031215610cfb57600080fd5b5035919050565b60008083601f840112610d1457600080fd5b50813567ffffffffffffffff811115610d2c57600080fd5b602083019150836020828501011115610d4457600080fd5b9250929050565b60008060008060008060006080888a031215610d6657600080fd5b873567ffffffffffffffff80821115610d7e57600080fd5b610d8a8b838c01610d02565b909950975060208a0135965060408a0135915080821115610daa57600080fd5b610db68b838c01610d02565b909650945060608a0135915080821115610dcf57600080fd5b50610ddc8a828b01610d02565b989b979a50959850939692959293505050565b600060208284031215610e0157600080fd5b81356001600160a01b0381168114610e1857600080fd5b9392505050565b6000815180845260005b81811015610e4557602081850181015186830182015201610e29565b506000602082860101526020601f19601f83011685010191505092915050565b634e487b7160e01b600052602160045260246000fd5b60048110610e9957634e487b7160e01b600052602160045260246000fd5b9052565b60006101008a8352806020840152610eb78184018b610e1f565b90508860408401528281036060840152610ed18189610e1f565b9050866080840152610ee660a0840187610e7b565b6001600160a01b03851660c084015282810360e0840152610f078185610e1f565b9b9a5050505050505050505050565b60208101610f248284610e7b565b92915050565b60008060408385031215610f3d57600080fd5b82359150602083013560048110610f5357600080fd5b809150509250929050565b8486823790930191825260601b6bffffffffffffffffffffffff191660208201526034810191909152605401919050565b634e487b7160e01b600052604160045260246000fd5b600181811c90821680610fb957607f821691505b602082108103610fd957634e487b7160e01b600052602260045260246000fd5b50919050565b601f82111561102957600081815260208120601f850160051c810160208610156110065750805b601f850160051c820191505b8181101561102557828155600101611012565b5050505b505050565b815167ffffffffffffffff81111561104857611048610f8f565b61105c816110568454610fa5565b84610fdf565b602080601f83116001811461109157600084156110795750858301515b600019600386901b1c1916600185901b178555611025565b600085815260208120601f198616915b828110156110c0578886015182559484019460019091019084016110a1565b50858210156110de5787850151600019600388901b60f8161c191681555b5050505050600190811b01905550565b81810381811115610f2457634e487b7160e01b600052601160045260246000fd5b81835281816020850137506000828201602090810191909152601f909101601f19169091010190565b60a08152600061114c60a083018a8c61110f565b886020840152828103604084015261116581888a61110f565b6001600160a01b038716606085015283810360808501529050610f0781858761110f565b606081016111978286610e7b565b6111a46020830185610e7b565b6001600160a01b0392909216604091909101529291505056fea26469706673582212203e88d704011b6f672754832a84b19acdb125dcf51e48749a40ddd349698d673064736f6c63430008130033",
  "immutableReferences": {},
  "source": "// SPDX-License-Identifier: MIT\r\npragma solidity ^0.8.19;\r\n\r\n/**\r\n * @title SupplyChain\r\n * @dev Enterprise-grade supply chain contract for immutable shipment recording and status updates.\r\n * Roles: Supplier, Manufacturer, Transporter, Distributor, Retailer.\r\n */\r\ncontract SupplyChain {\r\n    enum ShipmentStatus {\r\n        Created,\r\n        Dispatched,\r\n        InTransit,\r\n        Delivered\r\n    }\r\n\r\n    struct Shipment {\r\n        bytes32 shipmentId;\r\n        string productId;\r\n        uint256 quantity;\r\n        string destination;\r\n        uint256 createdAt;\r\n        ShipmentStatus status;\r\n        address createdBy;\r\n        string transactionRef;\r\n    }\r\n\r\n    mapping(bytes32 => Shipment) public shipments;\r\n    bytes32[] public shipmentIds;\r\n    mapping(bytes32 => uint256) public shipmentIndex;\r\n\r\n    address public owner;\r\n    mapping(address => bool) public authorizedRoles;\r\n\r\n    event ShipmentCreated(\r\n        bytes32 indexed shipmentId,\r\n        string productId,\r\n        uint256 quantity,\r\n        string destination,\r\n        address createdBy,\r\n        string transactionRef\r\n    );\r\n\r\n    event ShipmentStatusUpdated(\r\n        bytes32 indexed shipmentId,\r\n        ShipmentStatus previousStatus,\r\n        ShipmentStatus newStatus,\r\n        address updatedBy\r\n    );\r\n\r\n    modifier onlyOwner() {\r\n        require(msg.sender == owner, \"Not contract owner\");\r\n        _;\r\n    }\r\n\r\n    modifier onlyAuthorized() {\r\n        require(authorizedRoles[msg.sender] || msg.sender == owner, \"Not authorized\");\r\n        _;\r\n    }\r\n\r\n    constructor() {\r\n        owner = msg.sender;\r\n        authorizedRoles[msg.sender] = true;\r\n    }\r\n\r\n    function addAuthorized(address account) external onlyOwner {\r\n        authorizedRoles[account] = true;\r\n    }\r\n\r\n    function removeAuthorized(address account) external onlyOwner {\r\n        authorizedRoles[account] = false;\r\n    }\r\n\r\n    /**\r\n     * @dev Create a new shipment record. Emits ShipmentCreated.\r\n     */\r\n    function createShipment(\r\n        string calldata productId,\r\n        uint256 quantity,\r\n        string calldata destination,\r\n        string calldata transactionRef\r\n    ) external onlyAuthorized returns (bytes32) {\r\n        bytes32 id = keccak256(\r\n            abi.encodePacked(\r\n                productId,\r\n                block.timestamp,\r\n                msg.sender,\r\n                block.prevrandao\r\n            )\r\n        );\r\n        require(shipments[id].createdAt == 0, \"Shipment ID collision\");\r\n\r\n        shipments[id] = Shipment({\r\n            shipmentId: id,\r\n            productId: productId,\r\n            quantity: quantity,\r\n            destination: destination,\r\n            createdAt: block.timestamp,\r\n            status: ShipmentStatus.Created,\r\n            createdBy: msg.sender,\r\n            transactionRef: transactionRef\r\n        });\r\n\r\n        shipmentIds.push(id);\r\n        shipmentIndex[id] = shipmentIds.length - 1;\r\n\r\n        emit ShipmentCreated(id, productId, quantity, destination, msg.sender, transactionRef);\r\n        return id;\r\n    }\r\n\r\n    /**\r\n     * @dev Update shipment status. Only Dispatched -> InTransit -> Delivered progression allowed.\r\n     */\r\n    function updateShipmentStatus(bytes32 shipmentId, ShipmentStatus newStatus) external onlyAuthorized {\r\n        Shipment storage s = shipments[shipmentId];\r\n        require(s.createdAt != 0, \"Shipment does not exist\");\r\n\r\n        ShipmentStatus prev = s.status;\r\n        require(uint256(newStatus) > uint256(prev) && uint256(newStatus) <= uint256(ShipmentStatus.Delivered), \"Invalid status transition\");\r\n\r\n        s.status = newStatus;\r\n        emit ShipmentStatusUpdated(shipmentId, prev, newStatus, msg.sender);\r\n    }\r\n\r\n    function getShipment(bytes32 shipmentId) external view returns (\r\n        bytes32 id,\r\n        string memory productId,\r\n        uint256 quantity,\r\n        string memory destination,\r\n        uint256 createdAt,\r\n        ShipmentStatus status,\r\n        address createdBy,\r\n        string memory transactionRef\r\n    ) {\r\n        Shipment memory s = shipments[shipmentId];\r\n        require(s.createdAt != 0, \"Shipment does not exist\");\r\n        return (\r\n            s.shipmentId,\r\n            s.productId,\r\n            s.quantity,\r\n            s.destination,\r\n            s.createdAt,\r\n            s.status,\r\n            s.createdBy,\r\n            s.transactionRef\r\n        );\r\n    }\r\n\r\n    function getShipmentStatus(bytes32 shipmentId) external view returns (ShipmentStatus) {\r\n        return shipments[shipmentId].status;\r\n    }\r\n\r\n    function getTotalShipments() external view returns (uint256) {\r\n        return shipmentIds.length;\r\n    }\r\n}\r\n",
  "sourcePath": "E:\\Major Project\\blockchain\\contracts\\SupplyChain.sol",
  "compiler": {
    "name": "solc",
    "version": "0.8.19+commit.7dd6d404.Emscripten.clang"
  },
  "schemaVersion": "3.4.16",
  "updatedAt": "2026-03-12T16:57:47.103Z",
  "networkType": "ethereum",
  "devdoc": {
    "details": "Enterprise-grade supply chain contract for immutable shipment recording and status updates. Roles: Supplier, Manufacturer, Transporter, Distributor, Retailer.",
    "kind": "dev",
    "methods": {
      "createShipment(string,uint256,string,string)": {
        "details": "Create a new shipment record. Emits ShipmentCreated."
      },
      "updateShipmentStatus(bytes32,uint8)": {
        "details": "Update shipment status. Only Dispatched -> InTransit -> Delivered progression allowed."
      }
    },
    "title": "SupplyChain",
    "version": 1
  },
  "userdoc": {
    "kind": "user",
    "methods": {},
    "version": 1
  }
}